:020000040000FA
:1000000002016631000A53544152540A0056000A54
:1000100041434B0A004900540041434B0A00AFBD25
:10002000AEBE220201F5BB010CE58229F582E58313
:100030003AF583E0225006E92582F8E622BBFE0667
:10004000E92582F8E222E58229F582E5833AF58303
:10005000E493227597DE7597AD223202005AE4F5DB
:1000600008F50912028BD282D287E4FFFE1202EC5D
:10007000E4FFFE1202FC1202487BFF7A0079057D44
:1000800005120250E56B60FCE52960F8E54964045F
:100090007054E52A6452704E120248E52B24B76072
:1000A0001424F5602124FE703D7A00790D12024C73
:1000B000E4FFFE80207BFF7A0079157D011202505B
:1000C0007F017E00800F7BFF7A0079177D0112028D
:1000D000507F107E0012030C1202DB7BFF7A007946
:1000E0000F7D05120250E54964067072E52A6454DA
:1000F000706C120248E52CF508750900E52D4209DF
:10010000E52B24BB604124FC601124F5602B24FE08
:10011000704CAF09AE081202EC8015E509AE087804
:1001200006CEC313CE13D8F9F5098E08FF1202FCD0
:10013000AF09AE081202DB801AE50945087004C257
:10014000828002D282800CE50945087004C2878053
:1001500002D2877BFF7A0079197D05120250E4F5FF
:100160006BF54902008412039B787FE4F6D8FD7595
:10017000816B0201B002005EE493A3F8E493A34014
:1001800003F68001F208DFF48029E493A3F8540712
:10019000240CC8C333C4540F4420C8834004F4560D
:1001A000800146F6DFE4800B010204081020408045
:1001B0009002B2E47E019360BCA3FF543F30E50996
:1001C000541FFEE493A360010ECF54C025E060A845
:1001D00040B8E493A3FAE493A3F8E493A3C8C582D8
:1001E000C8CAC583CAF0A3C8C582C8CAC583CADF46
:1001F000E9DEE780BEC0E0C0D075D000C000309816
:100200001DC298859926E549C3942050117429256B
:1002100049F8A6260549E526B45803756B013099BF
:1002200020C299E528C3956A500E744A2528F8E63D
:10023000F526F59905288009756A0075280175234A
:1002400001D000D0D0D0E0327A0079037BFF7D016D
:100250008B0A8A0B890CE4F523F56AE56AC39D5085
:1002600022E56AC39420501BAB0AAA0BA90C856A2D
:1002700082758300120026FF744A256AF8A60705D6
:100280006A80D8854A99E52360FC22120053120344
:100290006912035F12037312039712038B1202C8D1
:1002A00012037D12031B12034512035212038F0225
:1002B0000393012800016A0001490001270001237E
:1002C00001012600016B0000AF885388AF758D9641
:1002D000EF5440FEEF54104E428822E4F523756A35
:1002E00002EFF54BEEF599E52360FC225306074338
:1002F000F780EFF5FBEEF5FC53F77F22530607433B
:10030000F780EFF5E9EEF5EA53F77F2212032912A1
:10031000033712038450FB12001E22C2DE75D90877
:1003200053F7F843F703D2DE22BF100543D1048010
:100330000353D1FB8FBB22E5E8540753E8F8C2ED25
:10034000D2EC42E82253F77F75DA4243F78053F745
:100350007F2253F77F75DB4243F78053F77F227587
:10036000E3C075E10175E2022275A4DC75F1FC754C
:10037000D4072275BCF975B38543E84022758920FE
:1003800043884022A2ED9200A20022E4F5A9224374
:0C03900098102275A8902275D19C2222A2
:00000001FF
