:020000040000FA
:1000000002005EAF885388AF758D96EF5440FEEFC7
:1000100054104E42882253F77F75DA4243F78053DB
:10002000F77F2202016F8B548A558956E4F50AF551
:1000300051AB54AA55A9568551827583001200ED23
:10004000FF640A6012E551C39420500B74312551AE
:10005000F8A607055180DA853199220202B512020D
:10006000B6787FE4F6D8FD7581560200A80201BA81
:10007000E493A3F8E493A34003F68001F208DFF4CD
:100080008029E493A3F85407240CC8C333C4540F45
:100090004420C8834004F456800146F6DFE4800B18
:1000A000010204081020408090022CE47E0193603D
:1000B000BCA3FF543F30E509541FFEE493A3600145
:1000C0000ECF54C025E060A840B8E493A3FAE493AF
:1000D000A3F8E493A3C8C582C8CAC583CAF0A3C85D
:1000E000C582C8CAC583CADFE9DEE780BEBB010C92
:1000F000E58229F582E5833AF583E0225006E92579
:1001000082F8E622BBFE06E92582F8E222E5822992
:10011000F582E5833AF583E49322BC000BBE002907
:10012000EF8DF084FFADF022E4CCF875F008EF2FEE
:10013000FFEE33FEEC33FCEE9DEC984005FCEE9DAB
:10014000FE0FD5F0E9E4CEFD22EDF8F5F0EE8420C7
:10015000D21CFEADF075F008EF2FFFED33FD400728
:10016000985006D5F0F222C398FD0FD5F0EA22C0D0
:10017000E0C0D075D000C000309815C29885990DA8
:10018000E530C39420500974102530F8A60D0530D1
:10019000309920C299E50FC39551500E7431250F47
:1001A000F8E6F50DF599050F8009755100750F01F9
:1001B000750A01D000D0D0D0E032E4F552F55312E8
:1001C0000205D282D2877BFF7A02793F120026E5B0
:1001D0000A60FCAF53AE52120269C3E55294085054
:1001E0000A0553E553700905528005E4F552F553AD
:1001F000AE52AF537C007D0A12011AED4C70C7B2AB
:1002000082B28780C1120294120280120276120218
:100210008A1202B11202A912000312029B12024EAC
:1002200012001612025C1202AD0202A2010F0001BE
:100230005100013000010E00010A01010D0000749F
:100240006869732069732061207465737400C2DE6D
:1002500075D90853F7F843F703D2DE2253F77F75B9
:10026000DB4243F78053F77F2243F780EFF5FBEE45
:10027000F5FC53F77F2275E3C075E10175E20222B8
:1002800075A49475F1FC75D4072275BCF175B3851E
:1002900043E840227597DE7597AD22758920438823
:1002A000402275E61075A89022E4F5A92243981023
:0702B0002275D11C2232224D
:00000001FF
