:020000040000FA
:1000000002016B012800016A00014900012700017B
:100010002301012600016B000075E3C075E1017545
:10002000E202220201FABB010CE58229F582E58396
:100030003AF583E0225006E92582F8E622BBFE0667
:10004000E92582F8E222E58229F582E5833AF58303
:10005000E493227597DE7597AD223202005AE4F5DB
:1000600008F50912029DD282D287E4FFFE1202FC3B
:10007000E4FFFE12030C12025A7BFF7A0279C67D5E
:1000800005120262E56B60FCE52960F8E54964044D
:100090007059E52A6452705312025AE52B24B76056
:1000A0001424F5602124FE703D7A0279CE12025E9E
:1000B000E4FFFE80207BFF7A0279D47D0112026288
:1000C0007F017E00800F7BFF7A0279D67D011202CC
:1000D000627F107E0012031C1202EB7BFF7A027912
:1000E000D07D05120262E4F56BF549E549640670BE
:1000F00093E52A6454708D12025AE52CF5087509AF
:1001000000E52D4209E52B24BB604124FC6011244D
:10011000F5602B24FE704CAF09AE081202FC80156E
:10012000E509AE087806CEC313CE13D8F9F5098ECB
:1001300008FF12030CAF09AE081202EB801AE509A2
:1001400045087004C2828002D282800CE50945080D
:100150007004C2878002D2877BFF7A0279D07D0546
:10016000120262E4F56BF5490200841203A6787F5F
:10017000E4F6D8FD75816B0201B502005EE493A33D
:10018000F8E493A34003F68001F208DFF48029E449
:1001900093A3F85407240CC8C333C4540F4420C895
:1001A000834004F456800146F6DFE4800B0102042C
:1001B0000810204080900003E47E019360BCA3FF00
:1001C000543F30E509541FFEE493A360010ECF5461
:1001D000C025E060A840B8E493A3FAE493A3F8E450
:1001E00093A3C8C582C8CAC583CAF0A3C8C582C8BC
:1001F000CAC583CADFE9DEE780BEC0E0C0D075D0E3
:1002000000C00030982AC298859926E549C39420F9
:10021000501E74292549F8A6260549E526B458102C
:10022000756B01E549D394064006756B007549006E
:10023000309920C299E528C3956A500E744A252842
:10024000F8E6F526F59905288009756A00752801F4
:10025000752301D000D0D0D0E0327A0279C47BFF80
:100260007D018B0A8A0B890CE4F523F56AE56AC3E4
:100270009D5022E56AC39420501BAB0AAA0BA90C1F
:10028000856A82758300120026FF744A256AF8A6E3
:1002900007056A80D8854A99E52360FC221200533D
:1002A00012036F1200191203791203A2120396129D
:1002B00002D812038312032B120355120362120396
:1002C0009A02039E31000A53544152540A005600C8
:1002D00041434B0049005400AF885388AF758D9659
:1002E000EF5440FEEF54104E428822E4F523756A25
:1002F00002EFF54BEEF599E52360FC225306074328
:10030000F780EFF5FBEEF5FC53F77F22530607432A
:10031000F780EFF5E9EEF5EA53F77F221203391281
:10032000034712038A50FB12039122C2DE75D908DB
:1003300053F7F843F703D2DE22BF100543D1048000
:100340000353D1FB8FBB22E5E8540753E8F8C2ED15
:10035000D2EC42E82253F77F75DA4243F78053F735
:100360007F2253F77F75DB4243F78053F77F227577
:10037000A4DC75F1FC75D4072275BCF975B385430F
:10038000E8402275892043884022A2ED9200A20015
:1003900022AFBDAEBE22E4F5A9224398102275A873
:0703A000902275D19C22227E
:00000001FF
