:020000040000FA
:1000000002002612001B1201C31201A91201B7122D
:1000100001621201B01201BB0201BF7597DE759734
:10002000AD22220200B5120022787FE4F6D8FD75D9
:100030008150020070020188E493A3F8E493A34086
:1000400003F68001F208DFF48029E493A3F8540753
:10005000240CC8C333C4540F4420C8834004F4564E
:10006000800146F6DFE4800B010204081020408086
:10007000900175E47E019360BCA3FF543F30E50915
:10008000541FFEE493A360010ECF54C025E060A886
:1000900040B8E493A3FAE493A3F8E493A3C8C58219
:1000A000C8CAC583CAF0A3C8C582C8CAC583CADF87
:1000B000E9DEE780BEC0E0C0D075D000C000309857
:1000C00015C298859909E52CC394205009740C2514
:1000D0002CF8A609052C309920C299E50BC3954D43
:1000E000500E742D250BF8E6F509F599050B8009DE
:1000F000754D00750B01750801D000D0D0D0E032ED
:100100008B4E8A4F8950E4F508F54DAB4EAA4FA9A6
:1001100050854D82758300120135FF640A6012E537
:100120004DC39420500B742D254DF8A607054D8026
:10013000DA852D9922BB010CE58229F582E5833A07
:10014000F583E0225006E92582F8E622BBFE06E9A7
:100150002582F8E222E58229F582E5833AF583E4F7
:100160009322AF885388AF758D96EF5440FEEF54BD
:10017000104E428822010B00014D00012C00010AA3
:1001800000010801010900001200037BFF7A0179D8
:100190009A120100E50870F380FA746869732069A7
:1001A00073206120746573740075E34075E101226A
:1001B00075892043884022E4F5A9224398102275CE
:0701C000A8902275A4102293
:00000001FF
