:020000040000FA
:1000000002013ED3EF9400EE940840047E087F0086
:1000100043F780EFF5FBEEF5FC53F77F22AFBDAE63
:10002000BE22320201CDBB010CE58229F582E583B7
:100030003AF583E0225006E92582F8E622BBFE0667
:10004000E92582F8E222E58229F582E5833AF58303
:10005000E493227597DE7597AD2222020022E4F523
:1000600008F509120263D282D2877FD07E07120080
:1000700003E56B60FCE52960F8E54964047054E52C
:100080002A6452704E120220E52B24B7601424F526
:10009000602124FE703D7A0279CF120224E4FFFE33
:1000A00080207BFF7A0279D77D011202287F017EB2
:1000B00000800F7BFF7A0279D97D011202287F1020
:1000C0007E001202F11202E07BFF7A0279D17D05F7
:1000D000120228E5496406705DE52A6454705712DF
:1000E0000220E52CF508750900E52D4209E52B24D1
:1000F000BB602C24FC601124F5601624FE7037AF21
:1001000009AE081200038023AF09AE0812028A80EC
:100110001AE50945087004C2828002D282800CE58B
:100120000945087004C2878002D2877BFF7A027972
:10013000DB7D05120228E4F56BF54902007112001F
:100140005A787FE4F6D8FD75816B02018802005E63
:10015000E493A3F8E493A34003F68001F208DFF4EC
:100160008029E493A3F85407240CC8C333C4540F64
:100170004420C8834004F456800146F6DFE4800B37
:1001800001020408102040809002A4E47E019360E4
:10019000BCA3FF543F30E509541FFEE493A3600164
:1001A0000ECF54C025E060A840B8E493A3FAE493CE
:1001B000A3F8E493A3C8C582C8CAC583CAF0A3C87C
:1001C000C582C8CAC583CADFE9DEE780BEC0E0C019
:1001D000D075D000C00030981DC298859926E54999
:1001E000C39420501174292549F8A6260549E5260F
:1001F000B45803756B01309920C299E528C3956AFC
:10020000500E744A2528F8E6F526F5990528800948
:10021000756A00752801752301D000D0D0D0E03276
:100220007A0279CD7BFF7D018B0A8A0B890CE4F57C
:1002300023F56AE56AC39D5022E56AC39420501BEA
:10024000AB0AAA0BA90C856A82758300120026FFEF
:10025000744A256AF8A607056A80D8854A99E52375
:1002600060FC2212005312034E1203441203581270
:10027000037F1203771202BA120362120300120301
:100280002A12033712037B020369D3EF9400EE9422
:100290000840047E047F0043F780EFF5E9EEF5EABD
:1002A00053F77F22012800016A000149000127005D
:1002B000012301012600016B0000AF885388AF7550
:1002C0008D96EF5440FEEF54104E42882231005676
:1002D000000A41434B0A004900540041434B0A00C5
:1002E000E4F523756A02EFF54BEEF599E52360FC22
:1002F0002212030E12031C12037050FB12001D2267
:10030000C2DE75D90853F7F843F703D2DE22BF10D7
:100310000543D104800353D1FB8FBB22E5E854078A
:1003200053E8F8C2EDD2EC42E82253F77F75DA4386
:1003300043F78053F77F2253F77F75DB4243F78003
:1003400053F77F2275E3C075E10175E2022275A4BF
:100350009475F1FC75D4072275BCF975B38543E833
:1003600040227589204388402275E61075A89022A6
:10037000A2ED9200A20022E4F5A922439810227572
:03038000D11C226B
:00000001FF
