:020000040000FA
:1000000002018A012800016A00014900012700015C
:100010002301012600016B000075E3C075E1017545
:10002000E20222020219BB010CE58229F582E58376
:100030003AF583E0225006E92582F8E622BBFE0667
:10004000E92582F8E222E58229F582E5833AF58303
:10005000E49322E5BE540FFEAFBD220203C7E4F5D0
:1000600008F5091202BCD282D287E4FFFE12031BFC
:10007000E4FFFE12032B1202797BFF7A0279E57D01
:1000800005120281E56B60FCE529B431F7E54964AE
:10009000047059E52A64527053120279E52B24B793
:1000A000601424F5602124FE703D7A0279EB12027F
:1000B0007DE4FFFE80207BFF7A0279F17D01120250
:1000C000817F017E00800F7BFF7A0279F37D011230
:1000D00002817F107E0012033B12030A7BFF7A022B
:1000E00079ED7D03120281E4F56BF549E54964067B
:1000F0007092E52A6454708C120279E52CF508752B
:100100000900E52D4209E52B24BB604D24FC601C51
:1001100024F5602C24FE706A7BFF7A0279EB7D0166
:10012000120281AF09AE0812031B80447BFF7A02E2
:1001300079F17D01120281AF09AE0812032B8030E4
:100140007BFF7A0279F37D01120281E5094508708F
:1001500004C2828002D28280177BFF7A0279F57D09
:1001600001120281E50945087004C2878002D28726
:10017000AF09AE0812030A7BFF7A0279ED7D031204
:100180000281E4F56BF5490200841203C8787FE42C
:10019000F6D8FD75816B0201D402005EE493A3F8EA
:1001A000E493A34003F68001F208DFF48029E4938E
:1001B000A3F85407240CC8C333C4540F4420C88385
:1001C0004004F456800146F6DFE4800B0102040887
:1001D00010204080900003E47E019360BCA3FF5494
:1001E0003F30E509541FFEE493A360010ECF54C0D5
:1001F00025E060A840B8E493A3FAE493A3F8E4935D
:10020000A3C8C582C8CAC583CAF0A3C8C582C8CA64
:10021000C583CADFE9DEE780BEC0E0C0D075D0008C
:10022000C00030982AC298859926E549C394205089
:100230001E74292549F8A6260549E526B4581075E7
:100240006B01E549D394064006756B007549003093
:100250009920C299E528C3956A500E744A2528F85A
:10026000E6F526F59905288009756A007528017557
:100270002301D000D0D0D0E0327A0279E37BFF7D39
:10028000018B0A8A0B890CE4F523F56AE56AC39DA4
:100290005022E56AC39420501BAB0AAA0BA90C8517
:1002A0006A82758300120026FF744A256AF8A60741
:1002B000056A80D8854A99E52360FC221203A212C0
:1002C000038E1200191203981203C31203B712020D
:1002D000F71203A912034A1203741203811203BB1B
:1002E0000203BF3100535441525400560041434B66
:1002F00000490054004500AF885388AF758D2BEF3F
:100300005440FEEF54104E428822E4F523756A02F1
:10031000EFF54BEEF599E52360FC2253060743F712
:1003200080EFF5FBEEF5FC53F77F2253060743F70A
:1003300080EFF5E9EEF5EA53F77F22120358120336
:10034000661203B050FB12005322C2DE75D9085367
:10035000F7F843F703D2DE22BF100543D104800330
:1003600053D1FB8FBB22E5E8540753E8F8C2EDD226
:10037000EC42E82253F77F75DA4243F78053F77F68
:100380002253F77F75DB4243F78053F77F2275A432
:10039000DC75F1FC75D4072275BCC975B38143E8DF
:1003A000C0227597DE7597AD22758920438840225B
:1003B000A2ED9200A20022E4F5A922439810227532
:0903C000A8902275D19C22322282
:00000001FF
