:020000040000FA
:1000000002005EAF885388AF758D96EF5440FEEFC7
:1000100054104E42882253F77F75DA4243F78053DB
:10002000F77F220200ED8B548A558956E4F50AF5D4
:1000300051AB54AA55A95685518275830012016CA3
:10004000FF640A6012E551C39420500B74312551AE
:10005000F8A607055180DA8531992202023F120283
:1000600040787FE4F6D8FD7581560200A802013879
:10007000E493A3F8E493A34003F68001F208DFF4CD
:100080008029E493A3F85407240CC8C333C4540F45
:100090004420C8834004F456800146F6DFE4800B18
:1000A00001020408102040809001BDE47E019360AD
:1000B000BCA3FF543F30E509541FFEE493A3600145
:1000C0000ECF54C025E060A840B8E493A3FAE493AF
:1000D000A3F8E493A3C8C582C8CAC583CAF0A3C85D
:1000E000C582C8CAC583CADFE9DEE780BEC0E0C0FA
:1000F000D075D000C000309815C29885990DE530B4
:10010000C39420500974102530F8A60D053030999D
:1001100020C299E50FC39551500E7431250FF8E6B2
:10012000F50DF599050F8009755100750F01750AD8
:1001300001D000D0D0D0E032E4F552F5531201994D
:100140007BFF7A0179D0120026E50A60FCAF53AE3E
:10015000521201FAC3E5529408500A0553E5537050
:10016000DF055280DBE4F552F55380D4BB010CE58A
:100170008229F582E5833AF583E0225006E925825B
:10018000F8E622BBFE06E92582F8E222E58229F59F
:1001900082E5833AF583E4932212021B12023012A5
:1001A0000207120211120237120003120222120178
:1001B000DF1200161201ED12023B020229010F00AC
:1001C000015100013000010E00010A01010D000083
:1001D000746869732069732061207465737400C248
:1001E000DE75D90853F7F843F703D2DE2253F77FC1
:1001F00075DB4243F78053F77F2243F780EFF5FB2F
:10020000EEF5FC53F77F2275E34075E10175E202DC
:100210002275BCF975B38543E840227597DE759762
:10022000AD227589204388402275E61075A890227A
:1002300075A41075D40722E4F5A922439810223240
:01024000229B
:00000001FF
